{
  "_format": "hh-sol-artifact-1",
  "contractName": "FirmexProductNFT",
  "sourceName": "src/contracts/FirmexProductNFT.sol",
  "abi": [
    {
      "inputs": [
        {
          "internalType": "string",
          "name": "_baseURL",
          "type": "string"
        }
      ],
      "stateMutability": "nonpayable",
      "type": "constructor"
    },
    {
      "anonymous": false,
      "inputs": [
        {
          "indexed": true,
          "internalType": "address",
          "name": "owner",
          "type": "address"
        },
        {
          "indexed": true,
          "internalType": "address",
          "name": "approved",
          "type": "address"
        },
        {
          "indexed": true,
          "internalType": "uint256",
          "name": "tokenId",
          "type": "uint256"
        }
      ],
      "name": "Approval",
      "type": "event"
    },
    {
      "anonymous": false,
      "inputs": [
        {
          "indexed": true,
          "internalType": "address",
          "name": "owner",
          "type": "address"
        },
        {
          "indexed": true,
          "internalType": "address",
          "name": "operator",
          "type": "address"
        },
        {
          "indexed": false,
          "internalType": "bool",
          "name": "approved",
          "type": "bool"
        }
      ],
      "name": "ApprovalForAll",
      "type": "event"
    },
    {
      "anonymous": false,
      "inputs": [
        {
          "indexed": true,
          "internalType": "address",
          "name": "previousOwner",
          "type": "address"
        },
        {
          "indexed": true,
          "internalType": "address",
          "name": "newOwner",
          "type": "address"
        }
      ],
      "name": "OwnershipTransferred",
      "type": "event"
    },
    {
      "anonymous": false,
      "inputs": [
        {
          "indexed": true,
          "internalType": "address",
          "name": "from",
          "type": "address"
        },
        {
          "indexed": true,
          "internalType": "address",
          "name": "to",
          "type": "address"
        },
        {
          "indexed": true,
          "internalType": "uint256",
          "name": "tokenId",
          "type": "uint256"
        }
      ],
      "name": "Transfer",
      "type": "event"
    },
    {
      "inputs": [
        {
          "internalType": "address",
          "name": "to",
          "type": "address"
        },
        {
          "internalType": "uint256",
          "name": "tokenId",
          "type": "uint256"
        }
      ],
      "name": "approve",
      "outputs": [],
      "stateMutability": "nonpayable",
      "type": "function"
    },
    {
      "inputs": [
        {
          "internalType": "address",
          "name": "owner",
          "type": "address"
        }
      ],
      "name": "balanceOf",
      "outputs": [
        {
          "internalType": "uint256",
          "name": "",
          "type": "uint256"
        }
      ],
      "stateMutability": "view",
      "type": "function"
    },
    {
      "inputs": [
        {
          "internalType": "uint256",
          "name": "tokenId",
          "type": "uint256"
        }
      ],
      "name": "getApproved",
      "outputs": [
        {
          "internalType": "address",
          "name": "",
          "type": "address"
        }
      ],
      "stateMutability": "view",
      "type": "function"
    },
    {
      "inputs": [
        {
          "internalType": "address",
          "name": "owner",
          "type": "address"
        },
        {
          "internalType": "address",
          "name": "operator",
          "type": "address"
        }
      ],
      "name": "isApprovedForAll",
      "outputs": [
        {
          "internalType": "bool",
          "name": "",
          "type": "bool"
        }
      ],
      "stateMutability": "view",
      "type": "function"
    },
    {
      "inputs": [],
      "name": "name",
      "outputs": [
        {
          "internalType": "string",
          "name": "",
          "type": "string"
        }
      ],
      "stateMutability": "view",
      "type": "function"
    },
    {
      "inputs": [],
      "name": "owner",
      "outputs": [
        {
          "internalType": "address",
          "name": "",
          "type": "address"
        }
      ],
      "stateMutability": "view",
      "type": "function"
    },
    {
      "inputs": [
        {
          "internalType": "uint256",
          "name": "tokenId",
          "type": "uint256"
        }
      ],
      "name": "ownerOf",
      "outputs": [
        {
          "internalType": "address",
          "name": "",
          "type": "address"
        }
      ],
      "stateMutability": "view",
      "type": "function"
    },
    {
      "inputs": [],
      "name": "renounceOwnership",
      "outputs": [],
      "stateMutability": "nonpayable",
      "type": "function"
    },
    {
      "inputs": [
        {
          "internalType": "address",
          "name": "to",
          "type": "address"
        },
        {
          "internalType": "string",
          "name": "uri",
          "type": "string"
        },
        {
          "internalType": "uint256",
          "name": "id",
          "type": "uint256"
        }
      ],
      "name": "safeMint",
      "outputs": [],
      "stateMutability": "nonpayable",
      "type": "function"
    },
    {
      "inputs": [
        {
          "internalType": "address",
          "name": "from",
          "type": "address"
        },
        {
          "internalType": "address",
          "name": "to",
          "type": "address"
        },
        {
          "internalType": "uint256",
          "name": "tokenId",
          "type": "uint256"
        }
      ],
      "name": "safeTransferFrom",
      "outputs": [],
      "stateMutability": "nonpayable",
      "type": "function"
    },
    {
      "inputs": [
        {
          "internalType": "address",
          "name": "from",
          "type": "address"
        },
        {
          "internalType": "address",
          "name": "to",
          "type": "address"
        },
        {
          "internalType": "uint256",
          "name": "tokenId",
          "type": "uint256"
        },
        {
          "internalType": "bytes",
          "name": "_data",
          "type": "bytes"
        }
      ],
      "name": "safeTransferFrom",
      "outputs": [],
      "stateMutability": "nonpayable",
      "type": "function"
    },
    {
      "inputs": [
        {
          "internalType": "address",
          "name": "operator",
          "type": "address"
        },
        {
          "internalType": "bool",
          "name": "approved",
          "type": "bool"
        }
      ],
      "name": "setApprovalForAll",
      "outputs": [],
      "stateMutability": "nonpayable",
      "type": "function"
    },
    {
      "inputs": [
        {
          "internalType": "bytes4",
          "name": "interfaceId",
          "type": "bytes4"
        }
      ],
      "name": "supportsInterface",
      "outputs": [
        {
          "internalType": "bool",
          "name": "",
          "type": "bool"
        }
      ],
      "stateMutability": "view",
      "type": "function"
    },
    {
      "inputs": [],
      "name": "symbol",
      "outputs": [
        {
          "internalType": "string",
          "name": "",
          "type": "string"
        }
      ],
      "stateMutability": "view",
      "type": "function"
    },
    {
      "inputs": [
        {
          "internalType": "uint256",
          "name": "tokenId",
          "type": "uint256"
        }
      ],
      "name": "tokenURI",
      "outputs": [
        {
          "internalType": "string",
          "name": "",
          "type": "string"
        }
      ],
      "stateMutability": "view",
      "type": "function"
    },
    {
      "inputs": [
        {
          "internalType": "address",
          "name": "from",
          "type": "address"
        },
        {
          "internalType": "address",
          "name": "to",
          "type": "address"
        },
        {
          "internalType": "uint256",
          "name": "tokenId",
          "type": "uint256"
        }
      ],
      "name": "transferFrom",
      "outputs": [],
      "stateMutability": "nonpayable",
      "type": "function"
    },
    {
      "inputs": [
        {
          "internalType": "address",
          "name": "newOwner",
          "type": "address"
        }
      ],
      "name": "transferOwnership",
      "outputs": [],
      "stateMutability": "nonpayable",
      "type": "function"
    }
  ],
  "bytecode": "0x60806040523480156200001157600080fd5b50604051620035e0380380620035e0833981810160405281019062000037919062000313565b6040518060400160405280601081526020017f4669726d657850726f647563744e4654000000000000000000000000000000008152506040518060400160405280600381526020017f46585000000000000000000000000000000000000000000000000000000000008152508160009080519060200190620000bb929190620001e5565b508060019080519060200190620000d4929190620001e5565b505050620000f7620000eb6200011760201b60201c565b6200011f60201b60201c565b80600890805190602001906200010f929190620001e5565b5050620004e8565b600033905090565b6000600760009054906101000a900473ffffffffffffffffffffffffffffffffffffffff16905081600760006101000a81548173ffffffffffffffffffffffffffffffffffffffff021916908373ffffffffffffffffffffffffffffffffffffffff1602179055508173ffffffffffffffffffffffffffffffffffffffff168173ffffffffffffffffffffffffffffffffffffffff167f8be0079c531659141344cd1fd0a4f28419497f9722a3daafe3b4186f6b6457e060405160405180910390a35050565b828054620001f390620003f9565b90600052602060002090601f01602090048101928262000217576000855562000263565b82601f106200023257805160ff191683800117855562000263565b8280016001018555821562000263579182015b828111156200026257825182559160200191906001019062000245565b5b50905062000272919062000276565b5090565b5b808211156200029157600081600090555060010162000277565b5090565b6000620002ac620002a6846200038d565b62000364565b905082815260208101848484011115620002cb57620002ca620004c8565b5b620002d8848285620003c3565b509392505050565b600082601f830112620002f857620002f7620004c3565b5b81516200030a84826020860162000295565b91505092915050565b6000602082840312156200032c576200032b620004d2565b5b600082015167ffffffffffffffff8111156200034d576200034c620004cd565b5b6200035b84828501620002e0565b91505092915050565b60006200037062000383565b90506200037e82826200042f565b919050565b6000604051905090565b600067ffffffffffffffff821115620003ab57620003aa62000494565b5b620003b682620004d7565b9050602081019050919050565b60005b83811015620003e3578082015181840152602081019050620003c6565b83811115620003f3576000848401525b50505050565b600060028204905060018216806200041257607f821691505b6020821081141562000429576200042862000465565b5b50919050565b6200043a82620004d7565b810181811067ffffffffffffffff821117156200045c576200045b62000494565b5b80604052505050565b7f4e487b7100000000000000000000000000000000000000000000000000000000600052602260045260246000fd5b7f4e487b7100000000000000000000000000000000000000000000000000000000600052604160045260246000fd5b600080fd5b600080fd5b600080fd5b600080fd5b6000601f19601f8301169050919050565b6130e880620004f86000396000f3fe608060405234801561001057600080fd5b506004361061010b5760003560e01c8063715018a6116100a2578063b88d4fde11610071578063b88d4fde146102a4578063c772745a146102c0578063c87b56dd146102dc578063e985e9c51461030c578063f2fde38b1461033c5761010b565b8063715018a6146102425780638da5cb5b1461024c57806395d89b411461026a578063a22cb465146102885761010b565b806323b872dd116100de57806323b872dd146101aa57806342842e0e146101c65780636352211e146101e257806370a08231146102125761010b565b806301ffc9a71461011057806306fdde0314610140578063081812fc1461015e578063095ea7b31461018e575b600080fd5b61012a60048036038101906101259190612048565b610358565b60405161013791906124a0565b60405180910390f35b61014861043a565b60405161015591906124bb565b60405180910390f35b610178600480360381019061017391906120a2565b6104cc565b6040516101859190612439565b60405180910390f35b6101a860048036038101906101a39190612008565b610551565b005b6101c460048036038101906101bf9190611e83565b610669565b005b6101e060048036038101906101db9190611e83565b6106c9565b005b6101fc60048036038101906101f791906120a2565b6106e9565b6040516102099190612439565b60405180910390f35b61022c60048036038101906102279190611e16565b61079b565b604051610239919061271d565b60405180910390f35b61024a610853565b005b6102546108db565b6040516102619190612439565b60405180910390f35b610272610905565b60405161027f91906124bb565b60405180910390f35b6102a2600480360381019061029d9190611f59565b610997565b005b6102be60048036038101906102b99190611ed6565b6109ad565b005b6102da60048036038101906102d59190611f99565b610a0f565b005b6102f660048036038101906102f191906120a2565b610aaa565b60405161030391906124bb565b60405180910390f35b61032660048036038101906103219190611e43565b610abc565b60405161033391906124a0565b60405180910390f35b61035660048036038101906103519190611e16565b610b50565b005b60007f80ac58cd000000000000000000000000000000000000000000000000000000007bffffffffffffffffffffffffffffffffffffffffffffffffffffffff1916827bffffffffffffffffffffffffffffffffffffffffffffffffffffffff1916148061042357507f5b5e139f000000000000000000000000000000000000000000000000000000007bffffffffffffffffffffffffffffffffffffffffffffffffffffffff1916827bffffffffffffffffffffffffffffffffffffffffffffffffffffffff1916145b80610433575061043282610c48565b5b9050919050565b60606000805461044990612973565b80601f016020809104026020016040519081016040528092919081815260200182805461047590612973565b80156104c25780601f10610497576101008083540402835291602001916104c2565b820191906000526020600020905b8154815290600101906020018083116104a557829003601f168201915b5050505050905090565b60006104d782610cb2565b610516576040517f08c379a000000000000000000000000000000000000000000000000000000000815260040161050d9061267d565b60405180910390fd5b6004600083815260200190815260200160002060009054906101000a900473ffffffffffffffffffffffffffffffffffffffff169050919050565b600061055c826106e9565b90508073ffffffffffffffffffffffffffffffffffffffff168373ffffffffffffffffffffffffffffffffffffffff1614156105cd576040517f08c379a00000000000000000000000000000000000000000000000000000000081526004016105c4906126dd565b60405180910390fd5b8073ffffffffffffffffffffffffffffffffffffffff166105ec610d1e565b73ffffffffffffffffffffffffffffffffffffffff16148061061b575061061a81610615610d1e565b610abc565b5b61065a576040517f08c379a0000000000000000000000000000000000000000000000000000000008152600401610651906125bd565b60405180910390fd5b6106648383610d26565b505050565b61067a610674610d1e565b82610ddf565b6106b9576040517f08c379a00000000000000000000000000000000000000000000000000000000081526004016106b0906126fd565b60405180910390fd5b6106c4838383610ebd565b505050565b6106e4838383604051806020016040528060008152506109ad565b505050565b6000806002600084815260200190815260200160002060009054906101000a900473ffffffffffffffffffffffffffffffffffffffff169050600073ffffffffffffffffffffffffffffffffffffffff168173ffffffffffffffffffffffffffffffffffffffff161415610792576040517f08c379a0000000000000000000000000000000000000000000000000000000008152600401610789906125fd565b60405180910390fd5b80915050919050565b60008073ffffffffffffffffffffffffffffffffffffffff168273ffffffffffffffffffffffffffffffffffffffff16141561080c576040517f08c379a0000000000000000000000000000000000000000000000000000000008152600401610803906125dd565b60405180910390fd5b600360008373ffffffffffffffffffffffffffffffffffffffff1673ffffffffffffffffffffffffffffffffffffffff168152602001908152602001600020549050919050565b61085b610d1e565b73ffffffffffffffffffffffffffffffffffffffff166108796108db565b73ffffffffffffffffffffffffffffffffffffffff16146108cf576040517f08c379a00000000000000000000000000000000000000000000000000000000081526004016108c69061269d565b60405180910390fd5b6108d96000611124565b565b6000600760009054906101000a900473ffffffffffffffffffffffffffffffffffffffff16905090565b60606001805461091490612973565b80601f016020809104026020016040519081016040528092919081815260200182805461094090612973565b801561098d5780601f106109625761010080835404028352916020019161098d565b820191906000526020600020905b81548152906001019060200180831161097057829003601f168201915b5050505050905090565b6109a96109a2610d1e565b83836111ea565b5050565b6109be6109b8610d1e565b83610ddf565b6109fd576040517f08c379a00000000000000000000000000000000000000000000000000000000081526004016109f4906126fd565b60405180910390fd5b610a0984848484611357565b50505050565b610a17610d1e565b73ffffffffffffffffffffffffffffffffffffffff16610a356108db565b73ffffffffffffffffffffffffffffffffffffffff1614610a8b576040517f08c379a0000000000000000000000000000000000000000000000000000000008152600401610a829061269d565b60405180910390fd5b6000819050610a9a84826113b3565b610aa481846113d1565b50505050565b6060610ab582611445565b9050919050565b6000600560008473ffffffffffffffffffffffffffffffffffffffff1673ffffffffffffffffffffffffffffffffffffffff16815260200190815260200160002060008373ffffffffffffffffffffffffffffffffffffffff1673ffffffffffffffffffffffffffffffffffffffff16815260200190815260200160002060009054906101000a900460ff16905092915050565b610b58610d1e565b73ffffffffffffffffffffffffffffffffffffffff16610b766108db565b73ffffffffffffffffffffffffffffffffffffffff1614610bcc576040517f08c379a0000000000000000000000000000000000000000000000000000000008152600401610bc39061269d565b60405180910390fd5b600073ffffffffffffffffffffffffffffffffffffffff168173ffffffffffffffffffffffffffffffffffffffff161415610c3c576040517f08c379a0000000000000000000000000000000000000000000000000000000008152600401610c33906124fd565b60405180910390fd5b610c4581611124565b50565b60007f01ffc9a7000000000000000000000000000000000000000000000000000000007bffffffffffffffffffffffffffffffffffffffffffffffffffffffff1916827bffffffffffffffffffffffffffffffffffffffffffffffffffffffff1916149050919050565b60008073ffffffffffffffffffffffffffffffffffffffff166002600084815260200190815260200160002060009054906101000a900473ffffffffffffffffffffffffffffffffffffffff1673ffffffffffffffffffffffffffffffffffffffff1614159050919050565b600033905090565b816004600083815260200190815260200160002060006101000a81548173ffffffffffffffffffffffffffffffffffffffff021916908373ffffffffffffffffffffffffffffffffffffffff160217905550808273ffffffffffffffffffffffffffffffffffffffff16610d99836106e9565b73ffffffffffffffffffffffffffffffffffffffff167f8c5be1e5ebec7d5bd14f71427d1e84f3dd0314c0f7b2291e5b200ac8c7c3b92560405160405180910390a45050565b6000610dea82610cb2565b610e29576040517f08c379a0000000000000000000000000000000000000000000000000000000008152600401610e209061259d565b60405180910390fd5b6000610e34836106e9565b90508073ffffffffffffffffffffffffffffffffffffffff168473ffffffffffffffffffffffffffffffffffffffff161480610ea357508373ffffffffffffffffffffffffffffffffffffffff16610e8b846104cc565b73ffffffffffffffffffffffffffffffffffffffff16145b80610eb45750610eb38185610abc565b5b91505092915050565b8273ffffffffffffffffffffffffffffffffffffffff16610edd826106e9565b73ffffffffffffffffffffffffffffffffffffffff1614610f33576040517f08c379a0000000000000000000000000000000000000000000000000000000008152600401610f2a9061251d565b60405180910390fd5b600073ffffffffffffffffffffffffffffffffffffffff168273ffffffffffffffffffffffffffffffffffffffff161415610fa3576040517f08c379a0000000000000000000000000000000000000000000000000000000008152600401610f9a9061255d565b60405180910390fd5b610fae838383611597565b610fb9600082610d26565b6001600360008573ffffffffffffffffffffffffffffffffffffffff1673ffffffffffffffffffffffffffffffffffffffff16815260200190815260200160002060008282546110099190612889565b925050819055506001600360008473ffffffffffffffffffffffffffffffffffffffff1673ffffffffffffffffffffffffffffffffffffffff16815260200190815260200160002060008282546110609190612802565b92505081905550816002600083815260200190815260200160002060006101000a81548173ffffffffffffffffffffffffffffffffffffffff021916908373ffffffffffffffffffffffffffffffffffffffff160217905550808273ffffffffffffffffffffffffffffffffffffffff168473ffffffffffffffffffffffffffffffffffffffff167fddf252ad1be2c89b69c2b068fc378daa952ba7f163c4a11628f55a4df523b3ef60405160405180910390a461111f83838361159c565b505050565b6000600760009054906101000a900473ffffffffffffffffffffffffffffffffffffffff16905081600760006101000a81548173ffffffffffffffffffffffffffffffffffffffff021916908373ffffffffffffffffffffffffffffffffffffffff1602179055508173ffffffffffffffffffffffffffffffffffffffff168173ffffffffffffffffffffffffffffffffffffffff167f8be0079c531659141344cd1fd0a4f28419497f9722a3daafe3b4186f6b6457e060405160405180910390a35050565b8173ffffffffffffffffffffffffffffffffffffffff168373ffffffffffffffffffffffffffffffffffffffff161415611259576040517f08c379a00000000000000000000000000000000000000000000000000000000081526004016112509061257d565b60405180910390fd5b80600560008573ffffffffffffffffffffffffffffffffffffffff1673ffffffffffffffffffffffffffffffffffffffff16815260200190815260200160002060008473ffffffffffffffffffffffffffffffffffffffff1673ffffffffffffffffffffffffffffffffffffffff16815260200190815260200160002060006101000a81548160ff0219169083151502179055508173ffffffffffffffffffffffffffffffffffffffff168373ffffffffffffffffffffffffffffffffffffffff167f17307eab39ab6107e8899845ad3d59bd9653f200f220920489ca2b5937696c318360405161134a91906124a0565b60405180910390a3505050565b611362848484610ebd565b61136e848484846115a1565b6113ad576040517f08c379a00000000000000000000000000000000000000000000000000000000081526004016113a4906124dd565b60405180910390fd5b50505050565b6113cd828260405180602001604052806000815250611738565b5050565b6113da82610cb2565b611419576040517f08c379a00000000000000000000000000000000000000000000000000000000081526004016114109061261d565b60405180910390fd5b80600660008481526020019081526020016000209080519060200190611440929190611c2a565b505050565b606061145082610cb2565b61148f576040517f08c379a00000000000000000000000000000000000000000000000000000000081526004016114869061265d565b60405180910390fd5b60006006600084815260200190815260200160002080546114af90612973565b80601f01602080910402602001604051908101604052809291908181526020018280546114db90612973565b80156115285780601f106114fd57610100808354040283529160200191611528565b820191906000526020600020905b81548152906001019060200180831161150b57829003601f168201915b505050505090506000611539611793565b905060008151141561154f578192505050611592565b60008251111561158457808260405160200161156c929190612415565b60405160208183030381529060405292505050611592565b61158d84611825565b925050505b919050565b505050565b505050565b60006115c28473ffffffffffffffffffffffffffffffffffffffff166118cc565b1561172b578373ffffffffffffffffffffffffffffffffffffffff1663150b7a026115eb610d1e565b8786866040518563ffffffff1660e01b815260040161160d9493929190612454565b602060405180830381600087803b15801561162757600080fd5b505af192505050801561165857506040513d601f19601f820116820180604052508101906116559190612075565b60015b6116db573d8060008114611688576040519150601f19603f3d011682016040523d82523d6000602084013e61168d565b606091505b506000815114156116d3576040517f08c379a00000000000000000000000000000000000000000000000000000000081526004016116ca906124dd565b60405180910390fd5b805181602001fd5b63150b7a0260e01b7bffffffffffffffffffffffffffffffffffffffffffffffffffffffff1916817bffffffffffffffffffffffffffffffffffffffffffffffffffffffff191614915050611730565b600190505b949350505050565b61174283836118ef565b61174f60008484846115a1565b61178e576040517f08c379a0000000000000000000000000000000000000000000000000000000008152600401611785906124dd565b60405180910390fd5b505050565b6060600880546117a290612973565b80601f01602080910402602001604051908101604052809291908181526020018280546117ce90612973565b801561181b5780601f106117f05761010080835404028352916020019161181b565b820191906000526020600020905b8154815290600101906020018083116117fe57829003601f168201915b5050505050905090565b606061183082610cb2565b61186f576040517f08c379a0000000000000000000000000000000000000000000000000000000008152600401611866906126bd565b60405180910390fd5b6000611879611793565b9050600081511161189957604051806020016040528060008152506118c4565b806118a384611ac9565b6040516020016118b4929190612415565b6040516020818303038152906040525b915050919050565b6000808273ffffffffffffffffffffffffffffffffffffffff163b119050919050565b600073ffffffffffffffffffffffffffffffffffffffff168273ffffffffffffffffffffffffffffffffffffffff16141561195f576040517f08c379a00000000000000000000000000000000000000000000000000000000081526004016119569061263d565b60405180910390fd5b61196881610cb2565b156119a8576040517f08c379a000000000000000000000000000000000000000000000000000000000815260040161199f9061253d565b60405180910390fd5b6119b460008383611597565b6001600360008473ffffffffffffffffffffffffffffffffffffffff1673ffffffffffffffffffffffffffffffffffffffff1681526020019081526020016000206000828254611a049190612802565b92505081905550816002600083815260200190815260200160002060006101000a81548173ffffffffffffffffffffffffffffffffffffffff021916908373ffffffffffffffffffffffffffffffffffffffff160217905550808273ffffffffffffffffffffffffffffffffffffffff16600073ffffffffffffffffffffffffffffffffffffffff167fddf252ad1be2c89b69c2b068fc378daa952ba7f163c4a11628f55a4df523b3ef60405160405180910390a4611ac56000838361159c565b5050565b60606000821415611b11576040518060400160405280600181526020017f30000000000000000000000000000000000000000000000000000000000000008152509050611c25565b600082905060005b60008214611b43578080611b2c906129d6565b915050600a82611b3c9190612858565b9150611b19565b60008167ffffffffffffffff811115611b5f57611b5e612b0c565b5b6040519080825280601f01601f191660200182016040528015611b915781602001600182028036833780820191505090505b5090505b60008514611c1e57600182611baa9190612889565b9150600a85611bb99190612a1f565b6030611bc59190612802565b60f81b818381518110611bdb57611bda612add565b5b60200101907effffffffffffffffffffffffffffffffffffffffffffffffffffffffffffff1916908160001a905350600a85611c179190612858565b9450611b95565b8093505050505b919050565b828054611c3690612973565b90600052602060002090601f016020900481019282611c585760008555611c9f565b82601f10611c7157805160ff1916838001178555611c9f565b82800160010185558215611c9f579182015b82811115611c9e578251825591602001919060010190611c83565b5b509050611cac9190611cb0565b5090565b5b80821115611cc9576000816000905550600101611cb1565b5090565b6000611ce0611cdb8461275d565b612738565b905082815260208101848484011115611cfc57611cfb612b40565b5b611d07848285612931565b509392505050565b6000611d22611d1d8461278e565b612738565b905082815260208101848484011115611d3e57611d3d612b40565b5b611d49848285612931565b509392505050565b600081359050611d6081613056565b92915050565b600081359050611d758161306d565b92915050565b600081359050611d8a81613084565b92915050565b600081519050611d9f81613084565b92915050565b600082601f830112611dba57611db9612b3b565b5b8135611dca848260208601611ccd565b91505092915050565b600082601f830112611de857611de7612b3b565b5b8135611df8848260208601611d0f565b91505092915050565b600081359050611e108161309b565b92915050565b600060208284031215611e2c57611e2b612b4a565b5b6000611e3a84828501611d51565b91505092915050565b60008060408385031215611e5a57611e59612b4a565b5b6000611e6885828601611d51565b9250506020611e7985828601611d51565b9150509250929050565b600080600060608486031215611e9c57611e9b612b4a565b5b6000611eaa86828701611d51565b9350506020611ebb86828701611d51565b9250506040611ecc86828701611e01565b9150509250925092565b60008060008060808587031215611ef057611eef612b4a565b5b6000611efe87828801611d51565b9450506020611f0f87828801611d51565b9350506040611f2087828801611e01565b925050606085013567ffffffffffffffff811115611f4157611f40612b45565b5b611f4d87828801611da5565b91505092959194509250565b60008060408385031215611f7057611f6f612b4a565b5b6000611f7e85828601611d51565b9250506020611f8f85828601611d66565b9150509250929050565b600080600060608486031215611fb257611fb1612b4a565b5b6000611fc086828701611d51565b935050602084013567ffffffffffffffff811115611fe157611fe0612b45565b5b611fed86828701611dd3565b9250506040611ffe86828701611e01565b9150509250925092565b6000806040838503121561201f5761201e612b4a565b5b600061202d85828601611d51565b925050602061203e85828601611e01565b9150509250929050565b60006020828403121561205e5761205d612b4a565b5b600061206c84828501611d7b565b91505092915050565b60006020828403121561208b5761208a612b4a565b5b600061209984828501611d90565b91505092915050565b6000602082840312156120b8576120b7612b4a565b5b60006120c684828501611e01565b91505092915050565b6120d8816128bd565b82525050565b6120e7816128cf565b82525050565b60006120f8826127bf565b61210281856127d5565b9350612112818560208601612940565b61211b81612b4f565b840191505092915050565b6000612131826127ca565b61213b81856127e6565b935061214b818560208601612940565b61215481612b4f565b840191505092915050565b600061216a826127ca565b61217481856127f7565b9350612184818560208601612940565b80840191505092915050565b600061219d6032836127e6565b91506121a882612b60565b604082019050919050565b60006121c06026836127e6565b91506121cb82612baf565b604082019050919050565b60006121e36025836127e6565b91506121ee82612bfe565b604082019050919050565b6000612206601c836127e6565b915061221182612c4d565b602082019050919050565b60006122296024836127e6565b915061223482612c76565b604082019050919050565b600061224c6019836127e6565b915061225782612cc5565b602082019050919050565b600061226f602c836127e6565b915061227a82612cee565b604082019050919050565b60006122926038836127e6565b915061229d82612d3d565b604082019050919050565b60006122b5602a836127e6565b91506122c082612d8c565b604082019050919050565b60006122d86029836127e6565b91506122e382612ddb565b604082019050919050565b60006122fb602e836127e6565b915061230682612e2a565b604082019050919050565b600061231e6020836127e6565b915061232982612e79565b602082019050919050565b60006123416031836127e6565b915061234c82612ea2565b604082019050919050565b6000612364602c836127e6565b915061236f82612ef1565b604082019050919050565b60006123876020836127e6565b915061239282612f40565b602082019050919050565b60006123aa602f836127e6565b91506123b582612f69565b604082019050919050565b60006123cd6021836127e6565b91506123d882612fb8565b604082019050919050565b60006123f06031836127e6565b91506123fb82613007565b604082019050919050565b61240f81612927565b82525050565b6000612421828561215f565b915061242d828461215f565b91508190509392505050565b600060208201905061244e60008301846120cf565b92915050565b600060808201905061246960008301876120cf565b61247660208301866120cf565b6124836040830185612406565b818103606083015261249581846120ed565b905095945050505050565b60006020820190506124b560008301846120de565b92915050565b600060208201905081810360008301526124d58184612126565b905092915050565b600060208201905081810360008301526124f681612190565b9050919050565b60006020820190508181036000830152612516816121b3565b9050919050565b60006020820190508181036000830152612536816121d6565b9050919050565b60006020820190508181036000830152612556816121f9565b9050919050565b600060208201905081810360008301526125768161221c565b9050919050565b600060208201905081810360008301526125968161223f565b9050919050565b600060208201905081810360008301526125b681612262565b9050919050565b600060208201905081810360008301526125d681612285565b9050919050565b600060208201905081810360008301526125f6816122a8565b9050919050565b60006020820190508181036000830152612616816122cb565b9050919050565b60006020820190508181036000830152612636816122ee565b9050919050565b6000602082019050818103600083015261265681612311565b9050919050565b6000602082019050818103600083015261267681612334565b9050919050565b6000602082019050818103600083015261269681612357565b9050919050565b600060208201905081810360008301526126b68161237a565b9050919050565b600060208201905081810360008301526126d68161239d565b9050919050565b600060208201905081810360008301526126f6816123c0565b9050919050565b60006020820190508181036000830152612716816123e3565b9050919050565b60006020820190506127326000830184612406565b92915050565b6000612742612753565b905061274e82826129a5565b919050565b6000604051905090565b600067ffffffffffffffff82111561277857612777612b0c565b5b61278182612b4f565b9050602081019050919050565b600067ffffffffffffffff8211156127a9576127a8612b0c565b5b6127b282612b4f565b9050602081019050919050565b600081519050919050565b600081519050919050565b600082825260208201905092915050565b600082825260208201905092915050565b600081905092915050565b600061280d82612927565b915061281883612927565b9250827fffffffffffffffffffffffffffffffffffffffffffffffffffffffffffffffff0382111561284d5761284c612a50565b5b828201905092915050565b600061286382612927565b915061286e83612927565b92508261287e5761287d612a7f565b5b828204905092915050565b600061289482612927565b915061289f83612927565b9250828210156128b2576128b1612a50565b5b828203905092915050565b60006128c882612907565b9050919050565b60008115159050919050565b60007fffffffff0000000000000000000000000000000000000000000000000000000082169050919050565b600073ffffffffffffffffffffffffffffffffffffffff82169050919050565b6000819050919050565b82818337600083830152505050565b60005b8381101561295e578082015181840152602081019050612943565b8381111561296d576000848401525b50505050565b6000600282049050600182168061298b57607f821691505b6020821081141561299f5761299e612aae565b5b50919050565b6129ae82612b4f565b810181811067ffffffffffffffff821117156129cd576129cc612b0c565b5b80604052505050565b60006129e182612927565b91507fffffffffffffffffffffffffffffffffffffffffffffffffffffffffffffffff821415612a1457612a13612a50565b5b600182019050919050565b6000612a2a82612927565b9150612a3583612927565b925082612a4557612a44612a7f565b5b828206905092915050565b7f4e487b7100000000000000000000000000000000000000000000000000000000600052601160045260246000fd5b7f4e487b7100000000000000000000000000000000000000000000000000000000600052601260045260246000fd5b7f4e487b7100000000000000000000000000000000000000000000000000000000600052602260045260246000fd5b7f4e487b7100000000000000000000000000000000000000000000000000000000600052603260045260246000fd5b7f4e487b7100000000000000000000000000000000000000000000000000000000600052604160045260246000fd5b600080fd5b600080fd5b600080fd5b600080fd5b6000601f19601f8301169050919050565b7f4552433732313a207472616e7366657220746f206e6f6e20455243373231526560008201527f63656976657220696d706c656d656e7465720000000000000000000000000000602082015250565b7f4f776e61626c653a206e6577206f776e657220697320746865207a65726f206160008201527f6464726573730000000000000000000000000000000000000000000000000000602082015250565b7f4552433732313a207472616e736665722066726f6d20696e636f72726563742060008201527f6f776e6572000000000000000000000000000000000000000000000000000000602082015250565b7f4552433732313a20746f6b656e20616c7265616479206d696e74656400000000600082015250565b7f4552433732313a207472616e7366657220746f20746865207a65726f2061646460008201527f7265737300000000000000000000000000000000000000000000000000000000602082015250565b7f4552433732313a20617070726f766520746f2063616c6c657200000000000000600082015250565b7f4552433732313a206f70657261746f7220717565727920666f72206e6f6e657860008201527f697374656e7420746f6b656e0000000000000000000000000000000000000000602082015250565b7f4552433732313a20617070726f76652063616c6c6572206973206e6f74206f7760008201527f6e6572206e6f7220617070726f76656420666f7220616c6c0000000000000000602082015250565b7f4552433732313a2062616c616e636520717565727920666f7220746865207a6560008201527f726f206164647265737300000000000000000000000000000000000000000000602082015250565b7f4552433732313a206f776e657220717565727920666f72206e6f6e657869737460008201527f656e7420746f6b656e0000000000000000000000000000000000000000000000602082015250565b7f45524337323155524953746f726167653a2055524920736574206f66206e6f6e60008201527f6578697374656e7420746f6b656e000000000000000000000000000000000000602082015250565b7f4552433732313a206d696e7420746f20746865207a65726f2061646472657373600082015250565b7f45524337323155524953746f726167653a2055524920717565727920666f722060008201527f6e6f6e6578697374656e7420746f6b656e000000000000000000000000000000602082015250565b7f4552433732313a20617070726f76656420717565727920666f72206e6f6e657860008201527f697374656e7420746f6b656e0000000000000000000000000000000000000000602082015250565b7f4f776e61626c653a2063616c6c6572206973206e6f7420746865206f776e6572600082015250565b7f4552433732314d657461646174613a2055524920717565727920666f72206e6f60008201527f6e6578697374656e7420746f6b656e0000000000000000000000000000000000602082015250565b7f4552433732313a20617070726f76616c20746f2063757272656e74206f776e6560008201527f7200000000000000000000000000000000000000000000000000000000000000602082015250565b7f4552433732313a207472616e736665722063616c6c6572206973206e6f74206f60008201527f776e6572206e6f7220617070726f766564000000000000000000000000000000602082015250565b61305f816128bd565b811461306a57600080fd5b50565b613076816128cf565b811461308157600080fd5b50565b61308d816128db565b811461309857600080fd5b50565b6130a481612927565b81146130af57600080fd5b5056fea264697066735822122021d23697be5021790bc00c4d334c9929caeec2ddf081a73e48651869be7e04b064736f6c63430008070033",
  "linkReferences": {},
  "deployedLinkReferences": {}
}