{
  "_format": "hh-sol-artifact-1",
  "contractName": "Authorization",
  "sourceName": "src/contracts/Authorization.sol",
  "abi": [
    {
      "inputs": [
        {
          "internalType": "uint256",
          "name": "roleAssignmentDelaySecs",
          "type": "uint256"
        }
      ],
      "stateMutability": "nonpayable",
      "type": "constructor"
    },
    {
      "anonymous": false,
      "inputs": [
        {
          "indexed": true,
          "internalType": "address",
          "name": "previousOwner",
          "type": "address"
        },
        {
          "indexed": true,
          "internalType": "address",
          "name": "newOwner",
          "type": "address"
        }
      ],
      "name": "OwnershipTransferred",
      "type": "event"
    },
    {
      "anonymous": false,
      "inputs": [
        {
          "indexed": true,
          "internalType": "address",
          "name": "to",
          "type": "address"
        },
        {
          "indexed": false,
          "internalType": "bytes4",
          "name": "role",
          "type": "bytes4"
        }
      ],
      "name": "RoleAssigned",
      "type": "event"
    },
    {
      "anonymous": false,
      "inputs": [
        {
          "indexed": true,
          "internalType": "address",
          "name": "who",
          "type": "address"
        }
      ],
      "name": "RoleRevoked",
      "type": "event"
    },
    {
      "inputs": [],
      "name": "ROLE_ADMIN",
      "outputs": [
        {
          "internalType": "bytes4",
          "name": "",
          "type": "bytes4"
        }
      ],
      "stateMutability": "view",
      "type": "function"
    },
    {
      "inputs": [],
      "name": "ROLE_ASSIGNMENT_DELAY_SECS",
      "outputs": [
        {
          "internalType": "uint256",
          "name": "",
          "type": "uint256"
        }
      ],
      "stateMutability": "view",
      "type": "function"
    },
    {
      "inputs": [],
      "name": "ROLE_DASHBOARD_VIEWER",
      "outputs": [
        {
          "internalType": "bytes4",
          "name": "",
          "type": "bytes4"
        }
      ],
      "stateMutability": "view",
      "type": "function"
    },
    {
      "inputs": [
        {
          "internalType": "address",
          "name": "",
          "type": "address"
        }
      ],
      "name": "_accountRoleAssigned",
      "outputs": [
        {
          "internalType": "bytes4",
          "name": "",
          "type": "bytes4"
        }
      ],
      "stateMutability": "view",
      "type": "function"
    },
    {
      "inputs": [
        {
          "internalType": "address",
          "name": "",
          "type": "address"
        }
      ],
      "name": "_accoutRoleAssignmentTime",
      "outputs": [
        {
          "internalType": "uint256",
          "name": "",
          "type": "uint256"
        }
      ],
      "stateMutability": "view",
      "type": "function"
    },
    {
      "inputs": [
        {
          "internalType": "address",
          "name": "_to",
          "type": "address"
        },
        {
          "internalType": "bytes4",
          "name": "_role",
          "type": "bytes4"
        }
      ],
      "name": "assignRole",
      "outputs": [],
      "stateMutability": "nonpayable",
      "type": "function"
    },
    {
      "inputs": [
        {
          "internalType": "address",
          "name": "_who",
          "type": "address"
        }
      ],
      "name": "getUserRole",
      "outputs": [
        {
          "internalType": "bytes4",
          "name": "",
          "type": "bytes4"
        }
      ],
      "stateMutability": "view",
      "type": "function"
    },
    {
      "inputs": [],
      "name": "owner",
      "outputs": [
        {
          "internalType": "address",
          "name": "",
          "type": "address"
        }
      ],
      "stateMutability": "view",
      "type": "function"
    },
    {
      "inputs": [],
      "name": "renounceOwnership",
      "outputs": [],
      "stateMutability": "nonpayable",
      "type": "function"
    },
    {
      "inputs": [
        {
          "internalType": "address",
          "name": "_to",
          "type": "address"
        }
      ],
      "name": "revokeRole",
      "outputs": [],
      "stateMutability": "nonpayable",
      "type": "function"
    },
    {
      "inputs": [
        {
          "internalType": "address",
          "name": "newOwner",
          "type": "address"
        }
      ],
      "name": "transferOwnership",
      "outputs": [],
      "stateMutability": "nonpayable",
      "type": "function"
    }
  ],
  "bytecode": "0x60a06040523480156200001157600080fd5b506040516200153b3803806200153b833981810160405281019062000037919062000342565b620000576200004b6200007660201b60201c565b6200007e60201b60201c565b80608081815250506200006f6200014260201b60201c565b506200047a565b600033905090565b60008060009054906101000a900473ffffffffffffffffffffffffffffffffffffffff169050816000806101000a81548173ffffffffffffffffffffffffffffffffffffffff021916908373ffffffffffffffffffffffffffffffffffffffff1602179055508173ffffffffffffffffffffffffffffffffffffffff168173ffffffffffffffffffffffffffffffffffffffff167f8be0079c531659141344cd1fd0a4f28419497f9722a3daafe3b4186f6b6457e060405160405180910390a35050565b620001526200007660201b60201c565b73ffffffffffffffffffffffffffffffffffffffff16620001786200030260201b60201c565b73ffffffffffffffffffffffffffffffffffffffff1614620001d1576040517f08c379a0000000000000000000000000000000000000000000000000000000008152600401620001c890620003c9565b60405180910390fd5b42600260003373ffffffffffffffffffffffffffffffffffffffff1673ffffffffffffffffffffffffffffffffffffffff168152602001908152602001600020819055507f2172861495e7b85edac73e3cd5fbb42dd675baadf627720e687bcfdaca025096600160003373ffffffffffffffffffffffffffffffffffffffff1673ffffffffffffffffffffffffffffffffffffffff16815260200190815260200160002060006101000a81548163ffffffff021916908360e01c02179055503373ffffffffffffffffffffffffffffffffffffffff167f511f8357096212d5a5fbce51f6c88b951f9de8834228340bfee3c370b133c6987f2172861495e7b85edac73e3cd5fbb42dd675baadf627720e687bcfdaca025096604051620002f89190620003ac565b60405180910390a2565b60008060009054906101000a900473ffffffffffffffffffffffffffffffffffffffff16905090565b6000815190506200033c8162000460565b92915050565b6000602082840312156200035b576200035a62000432565b5b60006200036b848285016200032b565b91505092915050565b6200037f81620003fc565b82525050565b600062000394602083620003eb565b9150620003a18262000437565b602082019050919050565b6000602082019050620003c3600083018462000374565b92915050565b60006020820190508181036000830152620003e48162000385565b9050919050565b600082825260208201905092915050565b60007fffffffff0000000000000000000000000000000000000000000000000000000082169050919050565b6000819050919050565b600080fd5b7f4f776e61626c653a2063616c6c6572206973206e6f7420746865206f776e6572600082015250565b6200046b8162000428565b81146200047757600080fd5b50565b608051611089620004b260003960008181610238015281816104a60152818161063b0152818161077201526108af01526110896000f3fe608060405234801561001057600080fd5b50600436106100a95760003560e01c806388dcd7961161007157806388dcd796146101525780638da5cb5b146101825780639da06bcc146101a0578063d391014b146101be578063ee303664146101dc578063f2fde38b146101f8576100a9565b8063015bc564146100ae57806327820851146100de578063715018a61461010e578063744184af1461011857806380e52e3f14610136575b600080fd5b6100c860048036038101906100c39190610bbb565b610214565b6040516100d59190610cfc565b60405180910390f35b6100f860048036038101906100f39190610bbb565b610234565b6040516101059190610cfc565b60405180910390f35b610116610309565b005b610120610391565b60405161012d9190610cfc565b60405180910390f35b610150600480360381019061014b9190610bbb565b6103b5565b005b61016c60048036038101906101679190610bbb565b6105f8565b6040516101799190610d97565b60405180910390f35b61018a610610565b6040516101979190610ce1565b60405180910390f35b6101a8610639565b6040516101b59190610d97565b60405180910390f35b6101c661065d565b6040516101d39190610cfc565b60405180910390f35b6101f660048036038101906101f19190610be8565b610681565b005b610212600480360381019061020d9190610bbb565b6109cd565b005b60016020528060005260406000206000915054906101000a900460e01b81565b60007f0000000000000000000000000000000000000000000000000000000000000000600260008473ffffffffffffffffffffffffffffffffffffffff1673ffffffffffffffffffffffffffffffffffffffff16815260200190815260200160002054426102a29190610e19565b10156102b457600060e01b9050610304565b600160008373ffffffffffffffffffffffffffffffffffffffff1673ffffffffffffffffffffffffffffffffffffffff16815260200190815260200160002060009054906101000a900460e01b90505b919050565b610311610ac5565b73ffffffffffffffffffffffffffffffffffffffff1661032f610610565b73ffffffffffffffffffffffffffffffffffffffff1614610385576040517f08c379a000000000000000000000000000000000000000000000000000000000815260040161037c90610d57565b60405180910390fd5b61038f6000610acd565b565b7f6a3028ca2619db39f86d051a043bf3ae8c8c1906fe777d818cc1d550b622473d81565b337f2172861495e7b85edac73e3cd5fbb42dd675baadf627720e687bcfdaca025096807bffffffffffffffffffffffffffffffffffffffffffffffffffffffff1916600160008473ffffffffffffffffffffffffffffffffffffffff1673ffffffffffffffffffffffffffffffffffffffff16815260200190815260200160002060009054906101000a900460e01b7bffffffffffffffffffffffffffffffffffffffffffffffffffffffff1916146104a3576040517f08c379a000000000000000000000000000000000000000000000000000000000815260040161049a90610d37565b60405180910390fd5b337f0000000000000000000000000000000000000000000000000000000000000000600260008373ffffffffffffffffffffffffffffffffffffffff1673ffffffffffffffffffffffffffffffffffffffff16815260200190815260200160002054426105109190610e19565b11610550576040517f08c379a000000000000000000000000000000000000000000000000000000000815260040161054790610d77565b60405180910390fd5b600060e01b600160008673ffffffffffffffffffffffffffffffffffffffff1673ffffffffffffffffffffffffffffffffffffffff16815260200190815260200160002060006101000a81548163ffffffff021916908360e01c02179055508373ffffffffffffffffffffffffffffffffffffffff167f6107a4a5447a4208ba14e3ec240bccf0a93828124ccf501af04601031070b18360405160405180910390a250505050565b60026020528060005260406000206000915090505481565b60008060009054906101000a900473ffffffffffffffffffffffffffffffffffffffff16905090565b7f000000000000000000000000000000000000000000000000000000000000000081565b7f2172861495e7b85edac73e3cd5fbb42dd675baadf627720e687bcfdaca02509681565b337f2172861495e7b85edac73e3cd5fbb42dd675baadf627720e687bcfdaca025096807bffffffffffffffffffffffffffffffffffffffffffffffffffffffff1916600160008473ffffffffffffffffffffffffffffffffffffffff1673ffffffffffffffffffffffffffffffffffffffff16815260200190815260200160002060009054906101000a900460e01b7bffffffffffffffffffffffffffffffffffffffffffffffffffffffff19161461076f576040517f08c379a000000000000000000000000000000000000000000000000000000000815260040161076690610d37565b60405180910390fd5b337f0000000000000000000000000000000000000000000000000000000000000000600260008373ffffffffffffffffffffffffffffffffffffffff1673ffffffffffffffffffffffffffffffffffffffff16815260200190815260200160002054426107dc9190610e19565b1161081c576040517f08c379a000000000000000000000000000000000000000000000000000000000815260040161081390610d77565b60405180910390fd5b837bffffffffffffffffffffffffffffffffffffffffffffffffffffffff1916600160008773ffffffffffffffffffffffffffffffffffffffff1673ffffffffffffffffffffffffffffffffffffffff16815260200190815260200160002060009054906101000a900460e01b7bffffffffffffffffffffffffffffffffffffffffffffffffffffffff1916146109c6577f0000000000000000000000000000000000000000000000000000000000000000426108d99190610dc3565b600260008773ffffffffffffffffffffffffffffffffffffffff1673ffffffffffffffffffffffffffffffffffffffff1681526020019081526020016000208190555083600160008773ffffffffffffffffffffffffffffffffffffffff1673ffffffffffffffffffffffffffffffffffffffff16815260200190815260200160002060006101000a81548163ffffffff021916908360e01c02179055508473ffffffffffffffffffffffffffffffffffffffff167f511f8357096212d5a5fbce51f6c88b951f9de8834228340bfee3c370b133c698856040516109bd9190610cfc565b60405180910390a25b5050505050565b6109d5610ac5565b73ffffffffffffffffffffffffffffffffffffffff166109f3610610565b73ffffffffffffffffffffffffffffffffffffffff1614610a49576040517f08c379a0000000000000000000000000000000000000000000000000000000008152600401610a4090610d57565b60405180910390fd5b600073ffffffffffffffffffffffffffffffffffffffff168173ffffffffffffffffffffffffffffffffffffffff161415610ab9576040517f08c379a0000000000000000000000000000000000000000000000000000000008152600401610ab090610d17565b60405180910390fd5b610ac281610acd565b50565b600033905090565b60008060009054906101000a900473ffffffffffffffffffffffffffffffffffffffff169050816000806101000a81548173ffffffffffffffffffffffffffffffffffffffff021916908373ffffffffffffffffffffffffffffffffffffffff1602179055508173ffffffffffffffffffffffffffffffffffffffff168173ffffffffffffffffffffffffffffffffffffffff167f8be0079c531659141344cd1fd0a4f28419497f9722a3daafe3b4186f6b6457e060405160405180910390a35050565b600081359050610ba081611025565b92915050565b600081359050610bb58161103c565b92915050565b600060208284031215610bd157610bd0610ee4565b5b6000610bdf84828501610b91565b91505092915050565b60008060408385031215610bff57610bfe610ee4565b5b6000610c0d85828601610b91565b9250506020610c1e85828601610ba6565b9150509250929050565b610c3181610e4d565b82525050565b610c4081610e5f565b82525050565b6000610c53602683610db2565b9150610c5e82610ee9565b604082019050919050565b6000610c76603983610db2565b9150610c8182610f38565b604082019050919050565b6000610c99602083610db2565b9150610ca482610f87565b602082019050919050565b6000610cbc604583610db2565b9150610cc782610fb0565b606082019050919050565b610cdb81610eab565b82525050565b6000602082019050610cf66000830184610c28565b92915050565b6000602082019050610d116000830184610c37565b92915050565b60006020820190508181036000830152610d3081610c46565b9050919050565b60006020820190508181036000830152610d5081610c69565b9050919050565b60006020820190508181036000830152610d7081610c8c565b9050919050565b60006020820190508181036000830152610d9081610caf565b9050919050565b6000602082019050610dac6000830184610cd2565b92915050565b600082825260208201905092915050565b6000610dce82610eab565b9150610dd983610eab565b9250827fffffffffffffffffffffffffffffffffffffffffffffffffffffffffffffffff03821115610e0e57610e0d610eb5565b5b828201905092915050565b6000610e2482610eab565b9150610e2f83610eab565b925082821015610e4257610e41610eb5565b5b828203905092915050565b6000610e5882610e8b565b9050919050565b60007fffffffff0000000000000000000000000000000000000000000000000000000082169050919050565b600073ffffffffffffffffffffffffffffffffffffffff82169050919050565b6000819050919050565b7f4e487b7100000000000000000000000000000000000000000000000000000000600052601160045260246000fd5b600080fd5b7f4f776e61626c653a206e6577206f776e657220697320746865207a65726f206160008201527f6464726573730000000000000000000000000000000000000000000000000000602082015250565b7f417574686f72697a6174696f6e3a20746865206164647265737320646f65732060008201527f6e6f742068617665206120726571756972656420726f6c652e00000000000000602082015250565b7f4f776e61626c653a2063616c6c6572206973206e6f7420746865206f776e6572600082015250565b7f417574686f72697a6174696f6e3a20746865206164647265737320646f65732060008201527f6e6f74206861766520616e2061637469766520726f6c652061737369676e656460208201527f207965742e000000000000000000000000000000000000000000000000000000604082015250565b61102e81610e4d565b811461103957600080fd5b50565b61104581610e5f565b811461105057600080fd5b5056fea26469706673582212203607c7085c5b4ba8bf5c764afd0e237d89b583bf444067dcfb4f4260aff442e364736f6c63430008070033",
  "linkReferences": {},
  "deployedLinkReferences": {}
}